{"contracts/Invoice.sol":{"Invoice":{"abi":[{"inputs":[{"internalType":"string","name":"_buyerPAN","type":"string"},{"internalType":"string","name":"_sellerPAN","type":"string"},{"internalType":"uint256","name":"_invoiceAmount","type":"uint256"}],"name":"addInvoice","outputs":[],"stateMutability":"nonpayable","type":"function"},{"inputs":[{"internalType":"string","name":"_buyerPAN","type":"string"}],"name":"getInvoicesByPAN","outputs":[{"components":[{"internalType":"string","name":"buyerPAN","type":"string"},{"internalType":"string","name":"sellerPAN","type":"string"},{"internalType":"uint256","name":"invoiceAmount","type":"uint256"},{"internalType":"uint256","name":"invoiceDate","type":"uint256"},{"internalType":"bool","name":"paid","type":"bool"}],"internalType":"struct Invoice.InvoiceData[]","name":"","type":"tuple[]"}],"stateMutability":"view","type":"function"},{"inputs":[{"internalType":"string","name":"","type":"string"},{"internalType":"uint256","name":"","type":"uint256"}],"name":"invoiceData","outputs":[{"internalType":"string","name":"buyerPAN","type":"string"},{"internalType":"string","name":"sellerPAN","type":"string"},{"internalType":"uint256","name":"invoiceAmount","type":"uint256"},{"internalType":"uint256","name":"invoiceDate","type":"uint256"},{"internalType":"bool","name":"paid","type":"bool"}],"stateMutability":"view","type":"function"},{"inputs":[{"internalType":"string","name":"_buyerPAN","type":"string"},{"internalType":"uint256","name":"_index","type":"uint256"}],"name":"payInvoiceByPAN","outputs":[],"stateMutability":"payable","type":"function"},{"inputs":[{"internalType":"string","name":"_pan","type":"string"}],"name":"validatePAN","outputs":[{"internalType":"bool","name":"","type":"bool"}],"stateMutability":"pure","type":"function"}],"evm":{"bytecode":{"linkReferences":{},"object":"608060405234801561001057600080fd5b50611551806100206000396000f3fe60806040526004361061004a5760003560e01c8063084c78ba1461004f5780631e7ebcbe1461008c578063216fdc31146100c9578063ab3066611461010a578063f02a8a5814610133575b600080fd5b34801561005b57600080fd5b5061007660048036038101906100719190610d8d565b61014f565b6040516100839190610df1565b60405180910390f35b34801561009857600080fd5b506100b360048036038101906100ae9190610d8d565b61059a565b6040516100c09190610ffb565b60405180910390f35b3480156100d557600080fd5b506100f060048036038101906100eb9190611049565b61076a565b6040516101019594939291906110fe565b60405180910390f35b34801561011657600080fd5b50610131600480360381019061012c919061115f565b6108f0565b005b61014d60048036038101906101489190611049565b610aaf565b005b600080829050600a815114610168576000915050610595565b60005b60058110156101ec576041828281518110610189576101886111ea565b5b602001015160f81c60f81b60f81c60ff1610806101c95750605a8282815181106101b6576101b56111ea565b5b602001015160f81c60f81b60f81c60ff16115b156101d957600092505050610595565b80806101e490611248565b91505061016b565b506000600590505b6009811015610275576030828281518110610212576102116111ea565b5b602001015160f81c60f81b60f81c60ff1610806102525750603982828151811061023f5761023e6111ea565b5b602001015160f81c60f81b60f81c60ff16115b1561026257600092505050610595565b808061026d90611248565b9150506101f4565b5060418160098151811061028c5761028b6111ea565b5b602001015160f81c60f81b60f81c60ff1610806102cd5750605a816009815181106102ba576102b96111ea565b5b602001015160f81c60f81b60f81c60ff16115b156102dc576000915050610595565b60006040518060400160405280600a81526020017f5043484142474a4c46490000000000000000000000000000000000000000000081525090506000805b600a8110156103c657828181518110610336576103356111ea565b5b602001015160f81c60f81b7effffffffffffffffffffffffffffffffffffffffffffffffffffffffffffff191684600381518110610377576103766111ea565b5b602001015160f81c60f81b7effffffffffffffffffffffffffffffffffffffffffffffffffffffffffffff191614156103b357600191506103c6565b80806103be90611248565b91505061031a565b50806103d85760009350505050610595565b7f30000000000000000000000000000000000000000000000000000000000000008360058151811061040d5761040c6111ea565b5b602001015160f81c60f81b7effffffffffffffffffffffffffffffffffffffffffffffffffffffffffffff19161480156104a657507f300000000000000000000000000000000000000000000000000000000000000083600681518110610477576104766111ea565b5b602001015160f81c60f81b7effffffffffffffffffffffffffffffffffffffffffffffffffffffffffffff1916145b801561051157507f3000000000000000000000000000000000000000000000000000000000000000836007815181106104e2576104e16111ea565b5b602001015160f81c60f81b7effffffffffffffffffffffffffffffffffffffffffffffffffffffffffffff1916145b801561057c57507f31000000000000000000000000000000000000000000000000000000000000008360088151811061054d5761054c6111ea565b5b602001015160f81c60f81b7effffffffffffffffffffffffffffffffffffffffffffffffffffffffffffff1916145b1561058d5760009350505050610595565b600193505050505b919050565b60606000826040516105ac91906112cd565b9081526020016040518091039020805480602002602001604051908101604052809291908181526020016000905b8282101561075f57838290600052602060002090600502016040518060a001604052908160008201805461060d90611313565b80601f016020809104026020016040519081016040528092919081815260200182805461063990611313565b80156106865780601f1061065b57610100808354040283529160200191610686565b820191906000526020600020905b81548152906001019060200180831161066957829003601f168201915b5050505050815260200160018201805461069f90611313565b80601f01602080910402602001604051908101604052809291908181526020018280546106cb90611313565b80156107185780601f106106ed57610100808354040283529160200191610718565b820191906000526020600020905b8154815290600101906020018083116106fb57829003601f168201915b5050505050815260200160028201548152602001600382015481526020016004820160009054906101000a900460ff161515151581525050815260200190600101906105da565b505050509050919050565b600082805160208101820180518482526020830160208501208183528095505050505050818154811061079c57600080fd5b9060005260206000209060050201600091509150508060000180546107c090611313565b80601f01602080910402602001604051908101604052809291908181526020018280546107ec90611313565b80156108395780601f1061080e57610100808354040283529160200191610839565b820191906000526020600020905b81548152906001019060200180831161081c57829003601f168201915b50505050509080600101805461084e90611313565b80601f016020809104026020016040519081016040528092919081815260200182805461087a90611313565b80156108c75780601f1061089c576101008083540402835291602001916108c7565b820191906000526020600020905b8154815290600101906020018083116108aa57829003601f168201915b5050505050908060020154908060030154908060040160009054906101000a900460ff16905085565b6108f98361014f565b610938576040517f08c379a000000000000000000000000000000000000000000000000000000000815260040161092f90611391565b60405180910390fd5b6109418261014f565b610980576040517f08c379a0000000000000000000000000000000000000000000000000000000008152600401610977906113fd565b60405180910390fd5b600081116109c3576040517f08c379a00000000000000000000000000000000000000000000000000000000081526004016109ba9061148f565b60405180910390fd5b60004290506000846040516109d891906112cd565b90815260200160405180910390206040518060a001604052808681526020018581526020018481526020018381526020016000151581525090806001815401808255809150506001900390600052602060002090600502016000909190919091506000820151816000019080519060200190610a55929190610b90565b506020820151816001019080519060200190610a72929190610b90565b50604082015181600201556060820151816003015560808201518160040160006101000a81548160ff021916908315150217905550505050505050565b34600083604051610ac091906112cd565b90815260200160405180910390208281548110610ae057610adf6111ea565b5b90600052602060002090600502016002015414610b32576040517f08c379a0000000000000000000000000000000000000000000000000000000008152600401610b29906114fb565b60405180910390fd5b6001600083604051610b4491906112cd565b90815260200160405180910390208281548110610b6457610b636111ea565b5b906000526020600020906005020160040160006101000a81548160ff0219169083151502179055505050565b828054610b9c90611313565b90600052602060002090601f016020900481019282610bbe5760008555610c05565b82601f10610bd757805160ff1916838001178555610c05565b82800160010185558215610c05579182015b82811115610c04578251825591602001919060010190610be9565b5b509050610c129190610c16565b5090565b5b80821115610c2f576000816000905550600101610c17565b5090565b6000604051905090565b600080fd5b600080fd5b600080fd5b600080fd5b6000601f19601f8301169050919050565b7f4e487b7100000000000000000000000000000000000000000000000000000000600052604160045260246000fd5b610c9a82610c51565b810181811067ffffffffffffffff82111715610cb957610cb8610c62565b5b80604052505050565b6000610ccc610c33565b9050610cd88282610c91565b919050565b600067ffffffffffffffff821115610cf857610cf7610c62565b5b610d0182610c51565b9050602081019050919050565b82818337600083830152505050565b6000610d30610d2b84610cdd565b610cc2565b905082815260208101848484011115610d4c57610d4b610c4c565b5b610d57848285610d0e565b509392505050565b600082601f830112610d7457610d73610c47565b5b8135610d84848260208601610d1d565b91505092915050565b600060208284031215610da357610da2610c3d565b5b600082013567ffffffffffffffff811115610dc157610dc0610c42565b5b610dcd84828501610d5f565b91505092915050565b60008115159050919050565b610deb81610dd6565b82525050565b6000602082019050610e066000830184610de2565b92915050565b600081519050919050565b600082825260208201905092915050565b6000819050602082019050919050565b600081519050919050565b600082825260208201905092915050565b60005b83811015610e72578082015181840152602081019050610e57565b83811115610e81576000848401525b50505050565b6000610e9282610e38565b610e9c8185610e43565b9350610eac818560208601610e54565b610eb581610c51565b840191505092915050565b6000819050919050565b610ed381610ec0565b82525050565b610ee281610dd6565b82525050565b600060a0830160008301518482036000860152610f058282610e87565b91505060208301518482036020860152610f1f8282610e87565b9150506040830151610f346040860182610eca565b506060830151610f476060860182610eca565b506080830151610f5a6080860182610ed9565b508091505092915050565b6000610f718383610ee8565b905092915050565b6000602082019050919050565b6000610f9182610e0c565b610f9b8185610e17565b935083602082028501610fad85610e28565b8060005b85811015610fe95784840389528151610fca8582610f65565b9450610fd583610f79565b925060208a01995050600181019050610fb1565b50829750879550505050505092915050565b600060208201905081810360008301526110158184610f86565b905092915050565b61102681610ec0565b811461103157600080fd5b50565b6000813590506110438161101d565b92915050565b600080604083850312156110605761105f610c3d565b5b600083013567ffffffffffffffff81111561107e5761107d610c42565b5b61108a85828601610d5f565b925050602061109b85828601611034565b9150509250929050565b600082825260208201905092915050565b60006110c182610e38565b6110cb81856110a5565b93506110db818560208601610e54565b6110e481610c51565b840191505092915050565b6110f881610ec0565b82525050565b600060a082019050818103600083015261111881886110b6565b9050818103602083015261112c81876110b6565b905061113b60408301866110ef565b61114860608301856110ef565b6111556080830184610de2565b9695505050505050565b60008060006060848603121561117857611177610c3d565b5b600084013567ffffffffffffffff81111561119657611195610c42565b5b6111a286828701610d5f565b935050602084013567ffffffffffffffff8111156111c3576111c2610c42565b5b6111cf86828701610d5f565b92505060406111e086828701611034565b9150509250925092565b7f4e487b7100000000000000000000000000000000000000000000000000000000600052603260045260246000fd5b7f4e487b7100000000000000000000000000000000000000000000000000000000600052601160045260246000fd5b600061125382610ec0565b91507fffffffffffffffffffffffffffffffffffffffffffffffffffffffffffffffff82141561128657611285611219565b5b600182019050919050565b600081905092915050565b60006112a782610e38565b6112b18185611291565b93506112c1818560208601610e54565b80840191505092915050565b60006112d9828461129c565b915081905092915050565b7f4e487b7100000000000000000000000000000000000000000000000000000000600052602260045260246000fd5b6000600282049050600182168061132b57607f821691505b6020821081141561133f5761133e6112e4565b5b50919050565b7f496e76616c69642062757965722050414e000000000000000000000000000000600082015250565b600061137b6011836110a5565b915061138682611345565b602082019050919050565b600060208201905081810360008301526113aa8161136e565b9050919050565b7f496e76616c69642073656c6c65722050414e0000000000000000000000000000600082015250565b60006113e76012836110a5565b91506113f2826113b1565b602082019050919050565b60006020820190508181036000830152611416816113da565b9050919050565b7f496e766f69636520616d6f756e742073686f756c64206265206772656174657260008201527f207468616e203000000000000000000000000000000000000000000000000000602082015250565b60006114796027836110a5565b91506114848261141d565b604082019050919050565b600060208201905081810360008301526114a88161146c565b9050919050565b7f416d6f756e74206e6f74206d6174636865640000000000000000000000000000600082015250565b60006114e56012836110a5565b91506114f0826114af565b602082019050919050565b60006020820190508181036000830152611514816114d8565b905091905056fea26469706673582212203045bc38297922357d3b26a1eb691726f99dfd27bd96d5efeeb4794db019b97364736f6c63430008090033","opcodes":"PUSH1 0x80 PUSH1 0x40 MSTORE CALLVALUE DUP1 ISZERO PUSH2 0x10 JUMPI PUSH1 0x0 DUP1 REVERT JUMPDEST POP PUSH2 0x1551 DUP1 PUSH2 0x20 PUSH1 0x0 CODECOPY PUSH1 0x0 RETURN INVALID PUSH1 0x80 PUSH1 0x40 MSTORE PUSH1 0x4 CALLDATASIZE LT PUSH2 0x4A JUMPI PUSH1 0x0 CALLDATALOAD PUSH1 0xE0 SHR DUP1 PUSH4 0x84C78BA EQ PUSH2 0x4F JUMPI DUP1 PUSH4 0x1E7EBCBE EQ PUSH2 0x8C JUMPI DUP1 PUSH4 0x216FDC31 EQ PUSH2 0xC9 JUMPI DUP1 PUSH4 0xAB306661 EQ PUSH2 0x10A JUMPI DUP1 PUSH4 0xF02A8A58 EQ PUSH2 0x133 JUMPI JUMPDEST PUSH1 0x0 DUP1 REVERT JUMPDEST CALLVALUE DUP1 ISZERO PUSH2 0x5B JUMPI PUSH1 0x0 DUP1 REVERT JUMPDEST POP PUSH2 0x76 PUSH1 0x4 DUP1 CALLDATASIZE SUB DUP2 ADD SWAP1 PUSH2 0x71 SWAP2 SWAP1 PUSH2 0xD8D JUMP JUMPDEST PUSH2 0x14F JUMP JUMPDEST PUSH1 0x40 MLOAD PUSH2 0x83 SWAP2 SWAP1 PUSH2 0xDF1 JUMP JUMPDEST PUSH1 0x40 MLOAD DUP1 SWAP2 SUB SWAP1 RETURN JUMPDEST CALLVALUE DUP1 ISZERO PUSH2 0x98 JUMPI PUSH1 0x0 DUP1 REVERT JUMPDEST POP PUSH2 0xB3 PUSH1 0x4 DUP1 CALLDATASIZE SUB DUP2 ADD SWAP1 PUSH2 0xAE SWAP2 SWAP1 PUSH2 0xD8D JUMP JUMPDEST PUSH2 0x59A JUMP JUMPDEST PUSH1 0x40 MLOAD PUSH2 0xC0 SWAP2 SWAP1 PUSH2 0xFFB JUMP JUMPDEST PUSH1 0x40 MLOAD DUP1 SWAP2 SUB SWAP1 RETURN JUMPDEST CALLVALUE DUP1 ISZERO PUSH2 0xD5 JUMPI PUSH1 0x0 DUP1 REVERT JUMPDEST POP PUSH2 0xF0 PUSH1 0x4 DUP1 CALLDATASIZE SUB DUP2 ADD SWAP1 PUSH2 0xEB SWAP2 SWAP1 PUSH2 0x1049 JUMP JUMPDEST PUSH2 0x76A JUMP JUMPDEST PUSH1 0x40 MLOAD PUSH2 0x101 SWAP6 SWAP5 SWAP4 SWAP3 SWAP2 SWAP1 PUSH2 0x10FE JUMP JUMPDEST PUSH1 0x40 MLOAD DUP1 SWAP2 SUB SWAP1 RETURN JUMPDEST CALLVALUE DUP1 ISZERO PUSH2 0x116 JUMPI PUSH1 0x0 DUP1 REVERT JUMPDEST POP PUSH2 0x131 PUSH1 0x4 DUP1 CALLDATASIZE SUB DUP2 ADD SWAP1 PUSH2 0x12C SWAP2 SWAP1 PUSH2 0x115F JUMP JUMPDEST PUSH2 0x8F0 JUMP JUMPDEST STOP JUMPDEST PUSH2 0x14D PUSH1 0x4 DUP1 CALLDATASIZE SUB DUP2 ADD SWAP1 PUSH2 0x148 SWAP2 SWAP1 PUSH2 0x1049 JUMP JUMPDEST PUSH2 0xAAF JUMP JUMPDEST STOP JUMPDEST PUSH1 0x0 DUP1 DUP3 SWAP1 POP PUSH1 0xA DUP2 MLOAD EQ PUSH2 0x168 JUMPI PUSH1 0x0 SWAP2 POP POP PUSH2 0x595 JUMP JUMPDEST PUSH1 0x0 JUMPDEST PUSH1 0x5 DUP2 LT ISZERO PUSH2 0x1EC JUMPI PUSH1 0x41 DUP3 DUP3 DUP2 MLOAD DUP2 LT PUSH2 0x189 JUMPI PUSH2 0x188 PUSH2 0x11EA JUMP JUMPDEST JUMPDEST PUSH1 0x20 ADD ADD MLOAD PUSH1 0xF8 SHR PUSH1 0xF8 SHL PUSH1 0xF8 SHR PUSH1 0xFF AND LT DUP1 PUSH2 0x1C9 JUMPI POP PUSH1 0x5A DUP3 DUP3 DUP2 MLOAD DUP2 LT PUSH2 0x1B6 JUMPI PUSH2 0x1B5 PUSH2 0x11EA JUMP JUMPDEST JUMPDEST PUSH1 0x20 ADD ADD MLOAD PUSH1 0xF8 SHR PUSH1 0xF8 SHL PUSH1 0xF8 SHR PUSH1 0xFF AND GT JUMPDEST ISZERO PUSH2 0x1D9 JUMPI PUSH1 0x0 SWAP3 POP POP POP PUSH2 0x595 JUMP JUMPDEST DUP1 DUP1 PUSH2 0x1E4 SWAP1 PUSH2 0x1248 JUMP JUMPDEST SWAP2 POP POP PUSH2 0x16B JUMP JUMPDEST POP PUSH1 0x0 PUSH1 0x5 SWAP1 POP JUMPDEST PUSH1 0x9 DUP2 LT ISZERO PUSH2 0x275 JUMPI PUSH1 0x30 DUP3 DUP3 DUP2 MLOAD DUP2 LT PUSH2 0x212 JUMPI PUSH2 0x211 PUSH2 0x11EA JUMP JUMPDEST JUMPDEST PUSH1 0x20 ADD ADD MLOAD PUSH1 0xF8 SHR PUSH1 0xF8 SHL PUSH1 0xF8 SHR PUSH1 0xFF AND LT DUP1 PUSH2 0x252 JUMPI POP PUSH1 0x39 DUP3 DUP3 DUP2 MLOAD DUP2 LT PUSH2 0x23F JUMPI PUSH2 0x23E PUSH2 0x11EA JUMP JUMPDEST JUMPDEST PUSH1 0x20 ADD ADD MLOAD PUSH1 0xF8 SHR PUSH1 0xF8 SHL PUSH1 0xF8 SHR PUSH1 0xFF AND GT JUMPDEST ISZERO PUSH2 0x262 JUMPI PUSH1 0x0 SWAP3 POP POP POP PUSH2 0x595 JUMP JUMPDEST DUP1 DUP1 PUSH2 0x26D SWAP1 PUSH2 0x1248 JUMP JUMPDEST SWAP2 POP POP PUSH2 0x1F4 JUMP JUMPDEST POP PUSH1 0x41 DUP2 PUSH1 0x9 DUP2 MLOAD DUP2 LT PUSH2 0x28C JUMPI PUSH2 0x28B PUSH2 0x11EA JUMP JUMPDEST JUMPDEST PUSH1 0x20 ADD ADD MLOAD PUSH1 0xF8 SHR PUSH1 0xF8 SHL PUSH1 0xF8 SHR PUSH1 0xFF AND LT DUP1 PUSH2 0x2CD JUMPI POP PUSH1 0x5A DUP2 PUSH1 0x9 DUP2 MLOAD DUP2 LT PUSH2 0x2BA JUMPI PUSH2 0x2B9 PUSH2 0x11EA JUMP JUMPDEST JUMPDEST PUSH1 0x20 ADD ADD MLOAD PUSH1 0xF8 SHR PUSH1 0xF8 SHL PUSH1 0xF8 SHR PUSH1 0xFF AND GT JUMPDEST ISZERO PUSH2 0x2DC JUMPI PUSH1 0x0 SWAP2 POP POP PUSH2 0x595 JUMP JUMPDEST PUSH1 0x0 PUSH1 0x40 MLOAD DUP1 PUSH1 0x40 ADD PUSH1 0x40 MSTORE DUP1 PUSH1 0xA DUP2 MSTORE PUSH1 0x20 ADD PUSH32 0x5043484142474A4C464900000000000000000000000000000000000000000000 DUP2 MSTORE POP SWAP1 POP PUSH1 0x0 DUP1 JUMPDEST PUSH1 0xA DUP2 LT ISZERO PUSH2 0x3C6 JUMPI DUP3 DUP2 DUP2 MLOAD DUP2 LT PUSH2 0x336 JUMPI PUSH2 0x335 PUSH2 0x11EA JUMP JUMPDEST JUMPDEST PUSH1 0x20 ADD ADD MLOAD PUSH1 0xF8 SHR PUSH1 0xF8 SHL PUSH31 0xFFFFFFFFFFFFFFFFFFFFFFFFFFFFFFFFFFFFFFFFFFFFFFFFFFFFFFFFFFFFFF NOT AND DUP5 PUSH1 0x3 DUP2 MLOAD DUP2 LT PUSH2 0x377 JUMPI PUSH2 0x376 PUSH2 0x11EA JUMP JUMPDEST JUMPDEST PUSH1 0x20 ADD ADD MLOAD PUSH1 0xF8 SHR PUSH1 0xF8 SHL PUSH31 0xFFFFFFFFFFFFFFFFFFFFFFFFFFFFFFFFFFFFFFFFFFFFFFFFFFFFFFFFFFFFFF NOT AND EQ ISZERO PUSH2 0x3B3 JUMPI PUSH1 0x1 SWAP2 POP PUSH2 0x3C6 JUMP JUMPDEST DUP1 DUP1 PUSH2 0x3BE SWAP1 PUSH2 0x1248 JUMP JUMPDEST SWAP2 POP POP PUSH2 0x31A JUMP JUMPDEST POP DUP1 PUSH2 0x3D8 JUMPI PUSH1 0x0 SWAP4 POP POP POP POP PUSH2 0x595 JUMP JUMPDEST PUSH32 0x3000000000000000000000000000000000000000000000000000000000000000 DUP4 PUSH1 0x5 DUP2 MLOAD DUP2 LT PUSH2 0x40D JUMPI PUSH2 0x40C PUSH2 0x11EA JUMP JUMPDEST JUMPDEST PUSH1 0x20 ADD ADD MLOAD PUSH1 0xF8 SHR PUSH1 0xF8 SHL PUSH31 0xFFFFFFFFFFFFFFFFFFFFFFFFFFFFFFFFFFFFFFFFFFFFFFFFFFFFFFFFFFFFFF NOT AND EQ DUP1 ISZERO PUSH2 0x4A6 JUMPI POP PUSH32 0x3000000000000000000000000000000000000000000000000000000000000000 DUP4 PUSH1 0x6 DUP2 MLOAD DUP2 LT PUSH2 0x477 JUMPI PUSH2 0x476 PUSH2 0x11EA JUMP JUMPDEST JUMPDEST PUSH1 0x20 ADD ADD MLOAD PUSH1 0xF8 SHR PUSH1 0xF8 SHL PUSH31 0xFFFFFFFFFFFFFFFFFFFFFFFFFFFFFFFFFFFFFFFFFFFFFFFFFFFFFFFFFFFFFF NOT AND EQ JUMPDEST DUP1 ISZERO PUSH2 0x511 JUMPI POP PUSH32 0x3000000000000000000000000000000000000000000000000000000000000000 DUP4 PUSH1 0x7 DUP2 MLOAD DUP2 LT PUSH2 0x4E2 JUMPI PUSH2 0x4E1 PUSH2 0x11EA JUMP JUMPDEST JUMPDEST PUSH1 0x20 ADD ADD MLOAD PUSH1 0xF8 SHR PUSH1 0xF8 SHL PUSH31 0xFFFFFFFFFFFFFFFFFFFFFFFFFFFFFFFFFFFFFFFFFFFFFFFFFFFFFFFFFFFFFF NOT AND EQ JUMPDEST DUP1 ISZERO PUSH2 0x57C JUMPI POP PUSH32 0x3100000000000000000000000000000000000000000000000000000000000000 DUP4 PUSH1 0x8 DUP2 MLOAD DUP2 LT PUSH2 0x54D JUMPI PUSH2 0x54C PUSH2 0x11EA JUMP JUMPDEST JUMPDEST PUSH1 0x20 ADD ADD MLOAD PUSH1 0xF8 SHR PUSH1 0xF8 SHL PUSH31 0xFFFFFFFFFFFFFFFFFFFFFFFFFFFFFFFFFFFFFFFFFFFFFFFFFFFFFFFFFFFFFF NOT AND EQ JUMPDEST ISZERO PUSH2 0x58D JUMPI PUSH1 0x0 SWAP4 POP POP POP POP PUSH2 0x595 JUMP JUMPDEST PUSH1 0x1 SWAP4 POP POP POP POP JUMPDEST SWAP2 SWAP1 POP JUMP JUMPDEST PUSH1 0x60 PUSH1 0x0 DUP3 PUSH1 0x40 MLOAD PUSH2 0x5AC SWAP2 SWAP1 PUSH2 0x12CD JUMP JUMPDEST SWAP1 DUP2 MSTORE PUSH1 0x20 ADD PUSH1 0x40 MLOAD DUP1 SWAP2 SUB SWAP1 KECCAK256 DUP1 SLOAD DUP1 PUSH1 0x20 MUL PUSH1 0x20 ADD PUSH1 0x40 MLOAD SWAP1 DUP2 ADD PUSH1 0x40 MSTORE DUP1 SWAP3 SWAP2 SWAP1 DUP2 DUP2 MSTORE PUSH1 0x20 ADD PUSH1 0x0 SWAP1 JUMPDEST DUP3 DUP3 LT ISZERO PUSH2 0x75F JUMPI DUP4 DUP3 SWAP1 PUSH1 0x0 MSTORE PUSH1 0x20 PUSH1 0x0 KECCAK256 SWAP1 PUSH1 0x5 MUL ADD PUSH1 0x40 MLOAD DUP1 PUSH1 0xA0 ADD PUSH1 0x40 MSTORE SWAP1 DUP2 PUSH1 0x0 DUP3 ADD DUP1 SLOAD PUSH2 0x60D SWAP1 PUSH2 0x1313 JUMP JUMPDEST DUP1 PUSH1 0x1F ADD PUSH1 0x20 DUP1 SWAP2 DIV MUL PUSH1 0x20 ADD PUSH1 0x40 MLOAD SWAP1 DUP2 ADD PUSH1 0x40 MSTORE DUP1 SWAP3 SWAP2 SWAP1 DUP2 DUP2 MSTORE PUSH1 0x20 ADD DUP3 DUP1 SLOAD PUSH2 0x639 SWAP1 PUSH2 0x1313 JUMP JUMPDEST DUP1 ISZERO PUSH2 0x686 JUMPI DUP1 PUSH1 0x1F LT PUSH2 0x65B JUMPI PUSH2 0x100 DUP1 DUP4 SLOAD DIV MUL DUP4 MSTORE SWAP2 PUSH1 0x20 ADD SWAP2 PUSH2 0x686 JUMP JUMPDEST DUP3 ADD SWAP2 SWAP1 PUSH1 0x0 MSTORE PUSH1 0x20 PUSH1 0x0 KECCAK256 SWAP1 JUMPDEST DUP2 SLOAD DUP2 MSTORE SWAP1 PUSH1 0x1 ADD SWAP1 PUSH1 0x20 ADD DUP1 DUP4 GT PUSH2 0x669 JUMPI DUP3 SWAP1 SUB PUSH1 0x1F AND DUP3 ADD SWAP2 JUMPDEST POP POP POP POP POP DUP2 MSTORE PUSH1 0x20 ADD PUSH1 0x1 DUP3 ADD DUP1 SLOAD PUSH2 0x69F SWAP1 PUSH2 0x1313 JUMP JUMPDEST DUP1 PUSH1 0x1F ADD PUSH1 0x20 DUP1 SWAP2 DIV MUL PUSH1 0x20 ADD PUSH1 0x40 MLOAD SWAP1 DUP2 ADD PUSH1 0x40 MSTORE DUP1 SWAP3 SWAP2 SWAP1 DUP2 DUP2 MSTORE PUSH1 0x20 ADD DUP3 DUP1 SLOAD PUSH2 0x6CB SWAP1 PUSH2 0x1313 JUMP JUMPDEST DUP1 ISZERO PUSH2 0x718 JUMPI DUP1 PUSH1 0x1F LT PUSH2 0x6ED JUMPI PUSH2 0x100 DUP1 DUP4 SLOAD DIV MUL DUP4 MSTORE SWAP2 PUSH1 0x20 ADD SWAP2 PUSH2 0x718 JUMP JUMPDEST DUP3 ADD SWAP2 SWAP1 PUSH1 0x0 MSTORE PUSH1 0x20 PUSH1 0x0 KECCAK256 SWAP1 JUMPDEST DUP2 SLOAD DUP2 MSTORE SWAP1 PUSH1 0x1 ADD SWAP1 PUSH1 0x20 ADD DUP1 DUP4 GT PUSH2 0x6FB JUMPI DUP3 SWAP1 SUB PUSH1 0x1F AND DUP3 ADD SWAP2 JUMPDEST POP POP POP POP POP DUP2 MSTORE PUSH1 0x20 ADD PUSH1 0x2 DUP3 ADD SLOAD DUP2 MSTORE PUSH1 0x20 ADD PUSH1 0x3 DUP3 ADD SLOAD DUP2 MSTORE PUSH1 0x20 ADD PUSH1 0x4 DUP3 ADD PUSH1 0x0 SWAP1 SLOAD SWAP1 PUSH2 0x100 EXP SWAP1 DIV PUSH1 0xFF AND ISZERO ISZERO ISZERO ISZERO DUP2 MSTORE POP POP DUP2 MSTORE PUSH1 0x20 ADD SWAP1 PUSH1 0x1 ADD SWAP1 PUSH2 0x5DA JUMP JUMPDEST POP POP POP POP SWAP1 POP SWAP2 SWAP1 POP JUMP JUMPDEST PUSH1 0x0 DUP3 DUP1 MLOAD PUSH1 0x20 DUP2 ADD DUP3 ADD DUP1 MLOAD DUP5 DUP3 MSTORE PUSH1 0x20 DUP4 ADD PUSH1 0x20 DUP6 ADD KECCAK256 DUP2 DUP4 MSTORE DUP1 SWAP6 POP POP POP POP POP POP DUP2 DUP2 SLOAD DUP2 LT PUSH2 0x79C JUMPI PUSH1 0x0 DUP1 REVERT JUMPDEST SWAP1 PUSH1 0x0 MSTORE PUSH1 0x20 PUSH1 0x0 KECCAK256 SWAP1 PUSH1 0x5 MUL ADD PUSH1 0x0 SWAP2 POP SWAP2 POP POP DUP1 PUSH1 0x0 ADD DUP1 SLOAD PUSH2 0x7C0 SWAP1 PUSH2 0x1313 JUMP JUMPDEST DUP1 PUSH1 0x1F ADD PUSH1 0x20 DUP1 SWAP2 DIV MUL PUSH1 0x20 ADD PUSH1 0x40 MLOAD SWAP1 DUP2 ADD PUSH1 0x40 MSTORE DUP1 SWAP3 SWAP2 SWAP1 DUP2 DUP2 MSTORE PUSH1 0x20 ADD DUP3 DUP1 SLOAD PUSH2 0x7EC SWAP1 PUSH2 0x1313 JUMP JUMPDEST DUP1 ISZERO PUSH2 0x839 JUMPI DUP1 PUSH1 0x1F LT PUSH2 0x80E JUMPI PUSH2 0x100 DUP1 DUP4 SLOAD DIV MUL DUP4 MSTORE SWAP2 PUSH1 0x20 ADD SWAP2 PUSH2 0x839 JUMP JUMPDEST DUP3 ADD SWAP2 SWAP1 PUSH1 0x0 MSTORE PUSH1 0x20 PUSH1 0x0 KECCAK256 SWAP1 JUMPDEST DUP2 SLOAD DUP2 MSTORE SWAP1 PUSH1 0x1 ADD SWAP1 PUSH1 0x20 ADD DUP1 DUP4 GT PUSH2 0x81C JUMPI DUP3 SWAP1 SUB PUSH1 0x1F AND DUP3 ADD SWAP2 JUMPDEST POP POP POP POP POP SWAP1 DUP1 PUSH1 0x1 ADD DUP1 SLOAD PUSH2 0x84E SWAP1 PUSH2 0x1313 JUMP JUMPDEST DUP1 PUSH1 0x1F ADD PUSH1 0x20 DUP1 SWAP2 DIV MUL PUSH1 0x20 ADD PUSH1 0x40 MLOAD SWAP1 DUP2 ADD PUSH1 0x40 MSTORE DUP1 SWAP3 SWAP2 SWAP1 DUP2 DUP2 MSTORE PUSH1 0x20 ADD DUP3 DUP1 SLOAD PUSH2 0x87A SWAP1 PUSH2 0x1313 JUMP JUMPDEST DUP1 ISZERO PUSH2 0x8C7 JUMPI DUP1 PUSH1 0x1F LT PUSH2 0x89C JUMPI PUSH2 0x100 DUP1 DUP4 SLOAD DIV MUL DUP4 MSTORE SWAP2 PUSH1 0x20 ADD SWAP2 PUSH2 0x8C7 JUMP JUMPDEST DUP3 ADD SWAP2 SWAP1 PUSH1 0x0 MSTORE PUSH1 0x20 PUSH1 0x0 KECCAK256 SWAP1 JUMPDEST DUP2 SLOAD DUP2 MSTORE SWAP1 PUSH1 0x1 ADD SWAP1 PUSH1 0x20 ADD DUP1 DUP4 GT PUSH2 0x8AA JUMPI DUP3 SWAP1 SUB PUSH1 0x1F AND DUP3 ADD SWAP2 JUMPDEST POP POP POP POP POP SWAP1 DUP1 PUSH1 0x2 ADD SLOAD SWAP1 DUP1 PUSH1 0x3 ADD SLOAD SWAP1 DUP1 PUSH1 0x4 ADD PUSH1 0x0 SWAP1 SLOAD SWAP1 PUSH2 0x100 EXP SWAP1 DIV PUSH1 0xFF AND SWAP1 POP DUP6 JUMP JUMPDEST PUSH2 0x8F9 DUP4 PUSH2 0x14F JUMP JUMPDEST PUSH2 0x938 JUMPI PUSH1 0x40 MLOAD PUSH32 0x8C379A000000000000000000000000000000000000000000000000000000000 DUP2 MSTORE PUSH1 0x4 ADD PUSH2 0x92F SWAP1 PUSH2 0x1391 JUMP JUMPDEST PUSH1 0x40 MLOAD DUP1 SWAP2 SUB SWAP1 REVERT JUMPDEST PUSH2 0x941 DUP3 PUSH2 0x14F JUMP JUMPDEST PUSH2 0x980 JUMPI PUSH1 0x40 MLOAD PUSH32 0x8C379A000000000000000000000000000000000000000000000000000000000 DUP2 MSTORE PUSH1 0x4 ADD PUSH2 0x977 SWAP1 PUSH2 0x13FD JUMP JUMPDEST PUSH1 0x40 MLOAD DUP1 SWAP2 SUB SWAP1 REVERT JUMPDEST PUSH1 0x0 DUP2 GT PUSH2 0x9C3 JUMPI PUSH1 0x40 MLOAD PUSH32 0x8C379A000000000000000000000000000000000000000000000000000000000 DUP2 MSTORE PUSH1 0x4 ADD PUSH2 0x9BA SWAP1 PUSH2 0x148F JUMP JUMPDEST PUSH1 0x40 MLOAD DUP1 SWAP2 SUB SWAP1 REVERT JUMPDEST PUSH1 0x0 TIMESTAMP SWAP1 POP PUSH1 0x0 DUP5 PUSH1 0x40 MLOAD PUSH2 0x9D8 SWAP2 SWAP1 PUSH2 0x12CD JUMP JUMPDEST SWAP1 DUP2 MSTORE PUSH1 0x20 ADD PUSH1 0x40 MLOAD DUP1 SWAP2 SUB SWAP1 KECCAK256 PUSH1 0x40 MLOAD DUP1 PUSH1 0xA0 ADD PUSH1 0x40 MSTORE DUP1 DUP7 DUP2 MSTORE PUSH1 0x20 ADD DUP6 DUP2 MSTORE PUSH1 0x20 ADD DUP5 DUP2 MSTORE PUSH1 0x20 ADD DUP4 DUP2 MSTORE PUSH1 0x20 ADD PUSH1 0x0 ISZERO ISZERO DUP2 MSTORE POP SWAP1 DUP1 PUSH1 0x1 DUP2 SLOAD ADD DUP1 DUP3 SSTORE DUP1 SWAP2 POP POP PUSH1 0x1 SWAP1 SUB SWAP1 PUSH1 0x0 MSTORE PUSH1 0x20 PUSH1 0x0 KECCAK256 SWAP1 PUSH1 0x5 MUL ADD PUSH1 0x0 SWAP1 SWAP2 SWAP1 SWAP2 SWAP1 SWAP2 POP PUSH1 0x0 DUP3 ADD MLOAD DUP2 PUSH1 0x0 ADD SWAP1 DUP1 MLOAD SWAP1 PUSH1 0x20 ADD SWAP1 PUSH2 0xA55 SWAP3 SWAP2 SWAP1 PUSH2 0xB90 JUMP JUMPDEST POP PUSH1 0x20 DUP3 ADD MLOAD DUP2 PUSH1 0x1 ADD SWAP1 DUP1 MLOAD SWAP1 PUSH1 0x20 ADD SWAP1 PUSH2 0xA72 SWAP3 SWAP2 SWAP1 PUSH2 0xB90 JUMP JUMPDEST POP PUSH1 0x40 DUP3 ADD MLOAD DUP2 PUSH1 0x2 ADD SSTORE PUSH1 0x60 DUP3 ADD MLOAD DUP2 PUSH1 0x3 ADD SSTORE PUSH1 0x80 DUP3 ADD MLOAD DUP2 PUSH1 0x4 ADD PUSH1 0x0 PUSH2 0x100 EXP DUP2 SLOAD DUP2 PUSH1 0xFF MUL NOT AND SWAP1 DUP4 ISZERO ISZERO MUL OR SWAP1 SSTORE POP POP POP POP POP POP POP JUMP JUMPDEST CALLVALUE PUSH1 0x0 DUP4 PUSH1 0x40 MLOAD PUSH2 0xAC0 SWAP2 SWAP1 PUSH2 0x12CD JUMP JUMPDEST SWAP1 DUP2 MSTORE PUSH1 0x20 ADD PUSH1 0x40 MLOAD DUP1 SWAP2 SUB SWAP1 KECCAK256 DUP3 DUP2 SLOAD DUP2 LT PUSH2 0xAE0 JUMPI PUSH2 0xADF PUSH2 0x11EA JUMP JUMPDEST JUMPDEST SWAP1 PUSH1 0x0 MSTORE PUSH1 0x20 PUSH1 0x0 KECCAK256 SWAP1 PUSH1 0x5 MUL ADD PUSH1 0x2 ADD SLOAD EQ PUSH2 0xB32 JUMPI PUSH1 0x40 MLOAD PUSH32 0x8C379A000000000000000000000000000000000000000000000000000000000 DUP2 MSTORE PUSH1 0x4 ADD PUSH2 0xB29 SWAP1 PUSH2 0x14FB JUMP JUMPDEST PUSH1 0x40 MLOAD DUP1 SWAP2 SUB SWAP1 REVERT JUMPDEST PUSH1 0x1 PUSH1 0x0 DUP4 PUSH1 0x40 MLOAD PUSH2 0xB44 SWAP2 SWAP1 PUSH2 0x12CD JUMP JUMPDEST SWAP1 DUP2 MSTORE PUSH1 0x20 ADD PUSH1 0x40 MLOAD DUP1 SWAP2 SUB SWAP1 KECCAK256 DUP3 DUP2 SLOAD DUP2 LT PUSH2 0xB64 JUMPI PUSH2 0xB63 PUSH2 0x11EA JUMP JUMPDEST JUMPDEST SWAP1 PUSH1 0x0 MSTORE PUSH1 0x20 PUSH1 0x0 KECCAK256 SWAP1 PUSH1 0x5 MUL ADD PUSH1 0x4 ADD PUSH1 0x0 PUSH2 0x100 EXP DUP2 SLOAD DUP2 PUSH1 0xFF MUL NOT AND SWAP1 DUP4 ISZERO ISZERO MUL OR SWAP1 SSTORE POP POP POP JUMP JUMPDEST DUP3 DUP1 SLOAD PUSH2 0xB9C SWAP1 PUSH2 0x1313 JUMP JUMPDEST SWAP1 PUSH1 0x0 MSTORE PUSH1 0x20 PUSH1 0x0 KECCAK256 SWAP1 PUSH1 0x1F ADD PUSH1 0x20 SWAP1 DIV DUP2 ADD SWAP3 DUP3 PUSH2 0xBBE JUMPI PUSH1 0x0 DUP6 SSTORE PUSH2 0xC05 JUMP JUMPDEST DUP3 PUSH1 0x1F LT PUSH2 0xBD7 JUMPI DUP1 MLOAD PUSH1 0xFF NOT AND DUP4 DUP1 ADD OR DUP6 SSTORE PUSH2 0xC05 JUMP JUMPDEST DUP3 DUP1 ADD PUSH1 0x1 ADD DUP6 SSTORE DUP3 ISZERO PUSH2 0xC05 JUMPI SWAP2 DUP3 ADD JUMPDEST DUP3 DUP2 GT ISZERO PUSH2 0xC04 JUMPI DUP3 MLOAD DUP3 SSTORE SWAP2 PUSH1 0x20 ADD SWAP2 SWAP1 PUSH1 0x1 ADD SWAP1 PUSH2 0xBE9 JUMP JUMPDEST JUMPDEST POP SWAP1 POP PUSH2 0xC12 SWAP2 SWAP1 PUSH2 0xC16 JUMP JUMPDEST POP SWAP1 JUMP JUMPDEST JUMPDEST DUP1 DUP3 GT ISZERO PUSH2 0xC2F JUMPI PUSH1 0x0 DUP2 PUSH1 0x0 SWAP1 SSTORE POP PUSH1 0x1 ADD PUSH2 0xC17 JUMP JUMPDEST POP SWAP1 JUMP JUMPDEST PUSH1 0x0 PUSH1 0x40 MLOAD SWAP1 POP SWAP1 JUMP JUMPDEST PUSH1 0x0 DUP1 REVERT JUMPDEST PUSH1 0x0 DUP1 REVERT JUMPDEST PUSH1 0x0 DUP1 REVERT JUMPDEST PUSH1 0x0 DUP1 REVERT JUMPDEST PUSH1 0x0 PUSH1 0x1F NOT PUSH1 0x1F DUP4 ADD AND SWAP1 POP SWAP2 SWAP1 POP JUMP JUMPDEST PUSH32 0x4E487B7100000000000000000000000000000000000000000000000000000000 PUSH1 0x0 MSTORE PUSH1 0x41 PUSH1 0x4 MSTORE PUSH1 0x24 PUSH1 0x0 REVERT JUMPDEST PUSH2 0xC9A DUP3 PUSH2 0xC51 JUMP JUMPDEST DUP2 ADD DUP2 DUP2 LT PUSH8 0xFFFFFFFFFFFFFFFF DUP3 GT OR ISZERO PUSH2 0xCB9 JUMPI PUSH2 0xCB8 PUSH2 0xC62 JUMP JUMPDEST JUMPDEST DUP1 PUSH1 0x40 MSTORE POP POP POP JUMP JUMPDEST PUSH1 0x0 PUSH2 0xCCC PUSH2 0xC33 JUMP JUMPDEST SWAP1 POP PUSH2 0xCD8 DUP3 DUP3 PUSH2 0xC91 JUMP JUMPDEST SWAP2 SWAP1 POP JUMP JUMPDEST PUSH1 0x0 PUSH8 0xFFFFFFFFFFFFFFFF DUP3 GT ISZERO PUSH2 0xCF8 JUMPI PUSH2 0xCF7 PUSH2 0xC62 JUMP JUMPDEST JUMPDEST PUSH2 0xD01 DUP3 PUSH2 0xC51 JUMP JUMPDEST SWAP1 POP PUSH1 0x20 DUP2 ADD SWAP1 POP SWAP2 SWAP1 POP JUMP JUMPDEST DUP3 DUP2 DUP4 CALLDATACOPY PUSH1 0x0 DUP4 DUP4 ADD MSTORE POP POP POP JUMP JUMPDEST PUSH1 0x0 PUSH2 0xD30 PUSH2 0xD2B DUP5 PUSH2 0xCDD JUMP JUMPDEST PUSH2 0xCC2 JUMP JUMPDEST SWAP1 POP DUP3 DUP2 MSTORE PUSH1 0x20 DUP2 ADD DUP5 DUP5 DUP5 ADD GT ISZERO PUSH2 0xD4C JUMPI PUSH2 0xD4B PUSH2 0xC4C JUMP JUMPDEST JUMPDEST PUSH2 0xD57 DUP5 DUP3 DUP6 PUSH2 0xD0E JUMP JUMPDEST POP SWAP4 SWAP3 POP POP POP JUMP JUMPDEST PUSH1 0x0 DUP3 PUSH1 0x1F DUP4 ADD SLT PUSH2 0xD74 JUMPI PUSH2 0xD73 PUSH2 0xC47 JUMP JUMPDEST JUMPDEST DUP2 CALLDATALOAD PUSH2 0xD84 DUP5 DUP3 PUSH1 0x20 DUP7 ADD PUSH2 0xD1D JUMP JUMPDEST SWAP2 POP POP SWAP3 SWAP2 POP POP JUMP JUMPDEST PUSH1 0x0 PUSH1 0x20 DUP3 DUP5 SUB SLT ISZERO PUSH2 0xDA3 JUMPI PUSH2 0xDA2 PUSH2 0xC3D JUMP JUMPDEST JUMPDEST PUSH1 0x0 DUP3 ADD CALLDATALOAD PUSH8 0xFFFFFFFFFFFFFFFF DUP2 GT ISZERO PUSH2 0xDC1 JUMPI PUSH2 0xDC0 PUSH2 0xC42 JUMP JUMPDEST JUMPDEST PUSH2 0xDCD DUP5 DUP3 DUP6 ADD PUSH2 0xD5F JUMP JUMPDEST SWAP2 POP POP SWAP3 SWAP2 POP POP JUMP JUMPDEST PUSH1 0x0 DUP2 ISZERO ISZERO SWAP1 POP SWAP2 SWAP1 POP JUMP JUMPDEST PUSH2 0xDEB DUP2 PUSH2 0xDD6 JUMP JUMPDEST DUP3 MSTORE POP POP JUMP JUMPDEST PUSH1 0x0 PUSH1 0x20 DUP3 ADD SWAP1 POP PUSH2 0xE06 PUSH1 0x0 DUP4 ADD DUP5 PUSH2 0xDE2 JUMP JUMPDEST SWAP3 SWAP2 POP POP JUMP JUMPDEST PUSH1 0x0 DUP2 MLOAD SWAP1 POP SWAP2 SWAP1 POP JUMP JUMPDEST PUSH1 0x0 DUP3 DUP3 MSTORE PUSH1 0x20 DUP3 ADD SWAP1 POP SWAP3 SWAP2 POP POP JUMP JUMPDEST PUSH1 0x0 DUP2 SWAP1 POP PUSH1 0x20 DUP3 ADD SWAP1 POP SWAP2 SWAP1 POP JUMP JUMPDEST PUSH1 0x0 DUP2 MLOAD SWAP1 POP SWAP2 SWAP1 POP JUMP JUMPDEST PUSH1 0x0 DUP3 DUP3 MSTORE PUSH1 0x20 DUP3 ADD SWAP1 POP SWAP3 SWAP2 POP POP JUMP JUMPDEST PUSH1 0x0 JUMPDEST DUP4 DUP2 LT ISZERO PUSH2 0xE72 JUMPI DUP1 DUP3 ADD MLOAD DUP2 DUP5 ADD MSTORE PUSH1 0x20 DUP2 ADD SWAP1 POP PUSH2 0xE57 JUMP JUMPDEST DUP4 DUP2 GT ISZERO PUSH2 0xE81 JUMPI PUSH1 0x0 DUP5 DUP5 ADD MSTORE JUMPDEST POP POP POP POP JUMP JUMPDEST PUSH1 0x0 PUSH2 0xE92 DUP3 PUSH2 0xE38 JUMP JUMPDEST PUSH2 0xE9C DUP2 DUP6 PUSH2 0xE43 JUMP JUMPDEST SWAP4 POP PUSH2 0xEAC DUP2 DUP6 PUSH1 0x20 DUP7 ADD PUSH2 0xE54 JUMP JUMPDEST PUSH2 0xEB5 DUP2 PUSH2 0xC51 JUMP JUMPDEST DUP5 ADD SWAP2 POP POP SWAP3 SWAP2 POP POP JUMP JUMPDEST PUSH1 0x0 DUP2 SWAP1 POP SWAP2 SWAP1 POP JUMP JUMPDEST PUSH2 0xED3 DUP2 PUSH2 0xEC0 JUMP JUMPDEST DUP3 MSTORE POP POP JUMP JUMPDEST PUSH2 0xEE2 DUP2 PUSH2 0xDD6 JUMP JUMPDEST DUP3 MSTORE POP POP JUMP JUMPDEST PUSH1 0x0 PUSH1 0xA0 DUP4 ADD PUSH1 0x0 DUP4 ADD MLOAD DUP5 DUP3 SUB PUSH1 0x0 DUP7 ADD MSTORE PUSH2 0xF05 DUP3 DUP3 PUSH2 0xE87 JUMP JUMPDEST SWAP2 POP POP PUSH1 0x20 DUP4 ADD MLOAD DUP5 DUP3 SUB PUSH1 0x20 DUP7 ADD MSTORE PUSH2 0xF1F DUP3 DUP3 PUSH2 0xE87 JUMP JUMPDEST SWAP2 POP POP PUSH1 0x40 DUP4 ADD MLOAD PUSH2 0xF34 PUSH1 0x40 DUP7 ADD DUP3 PUSH2 0xECA JUMP JUMPDEST POP PUSH1 0x60 DUP4 ADD MLOAD PUSH2 0xF47 PUSH1 0x60 DUP7 ADD DUP3 PUSH2 0xECA JUMP JUMPDEST POP PUSH1 0x80 DUP4 ADD MLOAD PUSH2 0xF5A PUSH1 0x80 DUP7 ADD DUP3 PUSH2 0xED9 JUMP JUMPDEST POP DUP1 SWAP2 POP POP SWAP3 SWAP2 POP POP JUMP JUMPDEST PUSH1 0x0 PUSH2 0xF71 DUP4 DUP4 PUSH2 0xEE8 JUMP JUMPDEST SWAP1 POP SWAP3 SWAP2 POP POP JUMP JUMPDEST PUSH1 0x0 PUSH1 0x20 DUP3 ADD SWAP1 POP SWAP2 SWAP1 POP JUMP JUMPDEST PUSH1 0x0 PUSH2 0xF91 DUP3 PUSH2 0xE0C JUMP JUMPDEST PUSH2 0xF9B DUP2 DUP6 PUSH2 0xE17 JUMP JUMPDEST SWAP4 POP DUP4 PUSH1 0x20 DUP3 MUL DUP6 ADD PUSH2 0xFAD DUP6 PUSH2 0xE28 JUMP JUMPDEST DUP1 PUSH1 0x0 JUMPDEST DUP6 DUP2 LT ISZERO PUSH2 0xFE9 JUMPI DUP5 DUP5 SUB DUP10 MSTORE DUP2 MLOAD PUSH2 0xFCA DUP6 DUP3 PUSH2 0xF65 JUMP JUMPDEST SWAP5 POP PUSH2 0xFD5 DUP4 PUSH2 0xF79 JUMP JUMPDEST SWAP3 POP PUSH1 0x20 DUP11 ADD SWAP10 POP POP PUSH1 0x1 DUP2 ADD SWAP1 POP PUSH2 0xFB1 JUMP JUMPDEST POP DUP3 SWAP8 POP DUP8 SWAP6 POP POP POP POP POP POP SWAP3 SWAP2 POP POP JUMP JUMPDEST PUSH1 0x0 PUSH1 0x20 DUP3 ADD SWAP1 POP DUP2 DUP2 SUB PUSH1 0x0 DUP4 ADD MSTORE PUSH2 0x1015 DUP2 DUP5 PUSH2 0xF86 JUMP JUMPDEST SWAP1 POP SWAP3 SWAP2 POP POP JUMP JUMPDEST PUSH2 0x1026 DUP2 PUSH2 0xEC0 JUMP JUMPDEST DUP2 EQ PUSH2 0x1031 JUMPI PUSH1 0x0 DUP1 REVERT JUMPDEST POP JUMP JUMPDEST PUSH1 0x0 DUP2 CALLDATALOAD SWAP1 POP PUSH2 0x1043 DUP2 PUSH2 0x101D JUMP JUMPDEST SWAP3 SWAP2 POP POP JUMP JUMPDEST PUSH1 0x0 DUP1 PUSH1 0x40 DUP4 DUP6 SUB SLT ISZERO PUSH2 0x1060 JUMPI PUSH2 0x105F PUSH2 0xC3D JUMP JUMPDEST JUMPDEST PUSH1 0x0 DUP4 ADD CALLDATALOAD PUSH8 0xFFFFFFFFFFFFFFFF DUP2 GT ISZERO PUSH2 0x107E JUMPI PUSH2 0x107D PUSH2 0xC42 JUMP JUMPDEST JUMPDEST PUSH2 0x108A DUP6 DUP3 DUP7 ADD PUSH2 0xD5F JUMP JUMPDEST SWAP3 POP POP PUSH1 0x20 PUSH2 0x109B DUP6 DUP3 DUP7 ADD PUSH2 0x1034 JUMP JUMPDEST SWAP2 POP POP SWAP3 POP SWAP3 SWAP1 POP JUMP JUMPDEST PUSH1 0x0 DUP3 DUP3 MSTORE PUSH1 0x20 DUP3 ADD SWAP1 POP SWAP3 SWAP2 POP POP JUMP JUMPDEST PUSH1 0x0 PUSH2 0x10C1 DUP3 PUSH2 0xE38 JUMP JUMPDEST PUSH2 0x10CB DUP2 DUP6 PUSH2 0x10A5 JUMP JUMPDEST SWAP4 POP PUSH2 0x10DB DUP2 DUP6 PUSH1 0x20 DUP7 ADD PUSH2 0xE54 JUMP JUMPDEST PUSH2 0x10E4 DUP2 PUSH2 0xC51 JUMP JUMPDEST DUP5 ADD SWAP2 POP POP SWAP3 SWAP2 POP POP JUMP JUMPDEST PUSH2 0x10F8 DUP2 PUSH2 0xEC0 JUMP JUMPDEST DUP3 MSTORE POP POP JUMP JUMPDEST PUSH1 0x0 PUSH1 0xA0 DUP3 ADD SWAP1 POP DUP2 DUP2 SUB PUSH1 0x0 DUP4 ADD MSTORE PUSH2 0x1118 DUP2 DUP9 PUSH2 0x10B6 JUMP JUMPDEST SWAP1 POP DUP2 DUP2 SUB PUSH1 0x20 DUP4 ADD MSTORE PUSH2 0x112C DUP2 DUP8 PUSH2 0x10B6 JUMP JUMPDEST SWAP1 POP PUSH2 0x113B PUSH1 0x40 DUP4 ADD DUP7 PUSH2 0x10EF JUMP JUMPDEST PUSH2 0x1148 PUSH1 0x60 DUP4 ADD DUP6 PUSH2 0x10EF JUMP JUMPDEST PUSH2 0x1155 PUSH1 0x80 DUP4 ADD DUP5 PUSH2 0xDE2 JUMP JUMPDEST SWAP7 SWAP6 POP POP POP POP POP POP JUMP JUMPDEST PUSH1 0x0 DUP1 PUSH1 0x0 PUSH1 0x60 DUP5 DUP7 SUB SLT ISZERO PUSH2 0x1178 JUMPI PUSH2 0x1177 PUSH2 0xC3D JUMP JUMPDEST JUMPDEST PUSH1 0x0 DUP5 ADD CALLDATALOAD PUSH8 0xFFFFFFFFFFFFFFFF DUP2 GT ISZERO PUSH2 0x1196 JUMPI PUSH2 0x1195 PUSH2 0xC42 JUMP JUMPDEST JUMPDEST PUSH2 0x11A2 DUP7 DUP3 DUP8 ADD PUSH2 0xD5F JUMP JUMPDEST SWAP4 POP POP PUSH1 0x20 DUP5 ADD CALLDATALOAD PUSH8 0xFFFFFFFFFFFFFFFF DUP2 GT ISZERO PUSH2 0x11C3 JUMPI PUSH2 0x11C2 PUSH2 0xC42 JUMP JUMPDEST JUMPDEST PUSH2 0x11CF DUP7 DUP3 DUP8 ADD PUSH2 0xD5F JUMP JUMPDEST SWAP3 POP POP PUSH1 0x40 PUSH2 0x11E0 DUP7 DUP3 DUP8 ADD PUSH2 0x1034 JUMP JUMPDEST SWAP2 POP POP SWAP3 POP SWAP3 POP SWAP3 JUMP JUMPDEST PUSH32 0x4E487B7100000000000000000000000000000000000000000000000000000000 PUSH1 0x0 MSTORE PUSH1 0x32 PUSH1 0x4 MSTORE PUSH1 0x24 PUSH1 0x0 REVERT JUMPDEST PUSH32 0x4E487B7100000000000000000000000000000000000000000000000000000000 PUSH1 0x0 MSTORE PUSH1 0x11 PUSH1 0x4 MSTORE PUSH1 0x24 PUSH1 0x0 REVERT JUMPDEST PUSH1 0x0 PUSH2 0x1253 DUP3 PUSH2 0xEC0 JUMP JUMPDEST SWAP2 POP PUSH32 0xFFFFFFFFFFFFFFFFFFFFFFFFFFFFFFFFFFFFFFFFFFFFFFFFFFFFFFFFFFFFFFFF DUP3 EQ ISZERO PUSH2 0x1286 JUMPI PUSH2 0x1285 PUSH2 0x1219 JUMP JUMPDEST JUMPDEST PUSH1 0x1 DUP3 ADD SWAP1 POP SWAP2 SWAP1 POP JUMP JUMPDEST PUSH1 0x0 DUP2 SWAP1 POP SWAP3 SWAP2 POP POP JUMP JUMPDEST PUSH1 0x0 PUSH2 0x12A7 DUP3 PUSH2 0xE38 JUMP JUMPDEST PUSH2 0x12B1 DUP2 DUP6 PUSH2 0x1291 JUMP JUMPDEST SWAP4 POP PUSH2 0x12C1 DUP2 DUP6 PUSH1 0x20 DUP7 ADD PUSH2 0xE54 JUMP JUMPDEST DUP1 DUP5 ADD SWAP2 POP POP SWAP3 SWAP2 POP POP JUMP JUMPDEST PUSH1 0x0 PUSH2 0x12D9 DUP3 DUP5 PUSH2 0x129C JUMP JUMPDEST SWAP2 POP DUP2 SWAP1 POP SWAP3 SWAP2 POP POP JUMP JUMPDEST PUSH32 0x4E487B7100000000000000000000000000000000000000000000000000000000 PUSH1 0x0 MSTORE PUSH1 0x22 PUSH1 0x4 MSTORE PUSH1 0x24 PUSH1 0x0 REVERT JUMPDEST PUSH1 0x0 PUSH1 0x2 DUP3 DIV SWAP1 POP PUSH1 0x1 DUP3 AND DUP1 PUSH2 0x132B JUMPI PUSH1 0x7F DUP3 AND SWAP2 POP JUMPDEST PUSH1 0x20 DUP3 LT DUP2 EQ ISZERO PUSH2 0x133F JUMPI PUSH2 0x133E PUSH2 0x12E4 JUMP JUMPDEST JUMPDEST POP SWAP2 SWAP1 POP JUMP JUMPDEST PUSH32 0x496E76616C69642062757965722050414E000000000000000000000000000000 PUSH1 0x0 DUP3 ADD MSTORE POP JUMP JUMPDEST PUSH1 0x0 PUSH2 0x137B PUSH1 0x11 DUP4 PUSH2 0x10A5 JUMP JUMPDEST SWAP2 POP PUSH2 0x1386 DUP3 PUSH2 0x1345 JUMP JUMPDEST PUSH1 0x20 DUP3 ADD SWAP1 POP SWAP2 SWAP1 POP JUMP JUMPDEST PUSH1 0x0 PUSH1 0x20 DUP3 ADD SWAP1 POP DUP2 DUP2 SUB PUSH1 0x0 DUP4 ADD MSTORE PUSH2 0x13AA DUP2 PUSH2 0x136E JUMP JUMPDEST SWAP1 POP SWAP2 SWAP1 POP JUMP JUMPDEST PUSH32 0x496E76616C69642073656C6C65722050414E0000000000000000000000000000 PUSH1 0x0 DUP3 ADD MSTORE POP JUMP JUMPDEST PUSH1 0x0 PUSH2 0x13E7 PUSH1 0x12 DUP4 PUSH2 0x10A5 JUMP JUMPDEST SWAP2 POP PUSH2 0x13F2 DUP3 PUSH2 0x13B1 JUMP JUMPDEST PUSH1 0x20 DUP3 ADD SWAP1 POP SWAP2 SWAP1 POP JUMP JUMPDEST PUSH1 0x0 PUSH1 0x20 DUP3 ADD SWAP1 POP DUP2 DUP2 SUB PUSH1 0x0 DUP4 ADD MSTORE PUSH2 0x1416 DUP2 PUSH2 0x13DA JUMP JUMPDEST SWAP1 POP SWAP2 SWAP1 POP JUMP JUMPDEST PUSH32 0x496E766F69636520616D6F756E742073686F756C642062652067726561746572 PUSH1 0x0 DUP3 ADD MSTORE PUSH32 0x207468616E203000000000000000000000000000000000000000000000000000 PUSH1 0x20 DUP3 ADD MSTORE POP JUMP JUMPDEST PUSH1 0x0 PUSH2 0x1479 PUSH1 0x27 DUP4 PUSH2 0x10A5 JUMP JUMPDEST SWAP2 POP PUSH2 0x1484 DUP3 PUSH2 0x141D JUMP JUMPDEST PUSH1 0x40 DUP3 ADD SWAP1 POP SWAP2 SWAP1 POP JUMP JUMPDEST PUSH1 0x0 PUSH1 0x20 DUP3 ADD SWAP1 POP DUP2 DUP2 SUB PUSH1 0x0 DUP4 ADD MSTORE PUSH2 0x14A8 DUP2 PUSH2 0x146C JUMP JUMPDEST SWAP1 POP SWAP2 SWAP1 POP JUMP JUMPDEST PUSH32 0x416D6F756E74206E6F74206D6174636865640000000000000000000000000000 PUSH1 0x0 DUP3 ADD MSTORE POP JUMP JUMPDEST PUSH1 0x0 PUSH2 0x14E5 PUSH1 0x12 DUP4 PUSH2 0x10A5 JUMP JUMPDEST SWAP2 POP PUSH2 0x14F0 DUP3 PUSH2 0x14AF JUMP JUMPDEST PUSH1 0x20 DUP3 ADD SWAP1 POP SWAP2 SWAP1 POP JUMP JUMPDEST PUSH1 0x0 PUSH1 0x20 DUP3 ADD SWAP1 POP DUP2 DUP2 SUB PUSH1 0x0 DUP4 ADD MSTORE PUSH2 0x1514 DUP2 PUSH2 0x14D8 JUMP JUMPDEST SWAP1 POP SWAP2 SWAP1 POP JUMP INVALID LOG2 PUSH5 0x6970667358 0x22 SLT KECCAK256 ADDRESS GASLIMIT 0xBC CODESIZE 0x29 PUSH26 0x22357D3B26A1EB691726F99DFD27BD96D5EFEEB4794DB019B973 PUSH5 0x736F6C6343 STOP ADDMOD MULMOD STOP CALLER "},"methodIdentifiers":{"addInvoice(string,string,uint256)":"ab306661","getInvoicesByPAN(string)":"1e7ebcbe","invoiceData(string,uint256)":"216fdc31","payInvoiceByPAN(string,uint256)":"f02a8a58","validatePAN(string)":"084c78ba"}}}}}