{
  "_format": "hh-sol-artifact-1",
  "contractName": "Invoice",
  "sourceName": "contracts/Invoice.sol",
  "abi": [
    {
      "inputs": [
        {
          "internalType": "string",
          "name": "_buyerPAN",
          "type": "string"
        },
        {
          "internalType": "string",
          "name": "_sellerPAN",
          "type": "string"
        },
        {
          "internalType": "uint256",
          "name": "_invoiceAmount",
          "type": "uint256"
        }
      ],
      "name": "addInvoice",
      "outputs": [],
      "stateMutability": "nonpayable",
      "type": "function"
    },
    {
      "inputs": [
        {
          "internalType": "string",
          "name": "_buyerPAN",
          "type": "string"
        }
      ],
      "name": "getInvoicesByPAN",
      "outputs": [
        {
          "components": [
            {
              "internalType": "string",
              "name": "buyerPAN",
              "type": "string"
            },
            {
              "internalType": "string",
              "name": "sellerPAN",
              "type": "string"
            },
            {
              "internalType": "uint256",
              "name": "invoiceAmount",
              "type": "uint256"
            },
            {
              "internalType": "uint256",
              "name": "invoiceDate",
              "type": "uint256"
            },
            {
              "internalType": "bool",
              "name": "paid",
              "type": "bool"
            }
          ],
          "internalType": "struct Invoice.InvoiceData[]",
          "name": "",
          "type": "tuple[]"
        }
      ],
      "stateMutability": "view",
      "type": "function"
    },
    {
      "inputs": [
        {
          "internalType": "string",
          "name": "",
          "type": "string"
        },
        {
          "internalType": "uint256",
          "name": "",
          "type": "uint256"
        }
      ],
      "name": "invoiceData",
      "outputs": [
        {
          "internalType": "string",
          "name": "buyerPAN",
          "type": "string"
        },
        {
          "internalType": "string",
          "name": "sellerPAN",
          "type": "string"
        },
        {
          "internalType": "uint256",
          "name": "invoiceAmount",
          "type": "uint256"
        },
        {
          "internalType": "uint256",
          "name": "invoiceDate",
          "type": "uint256"
        },
        {
          "internalType": "bool",
          "name": "paid",
          "type": "bool"
        }
      ],
      "stateMutability": "view",
      "type": "function"
    },
    {
      "inputs": [
        {
          "internalType": "string",
          "name": "_buyerPAN",
          "type": "string"
        },
        {
          "internalType": "uint256",
          "name": "_index",
          "type": "uint256"
        }
      ],
      "name": "payInvoiceByPAN",
      "outputs": [],
      "stateMutability": "payable",
      "type": "function"
    },
    {
      "inputs": [
        {
          "internalType": "string",
          "name": "_pan",
          "type": "string"
        }
      ],
      "name": "validatePAN",
      "outputs": [
        {
          "internalType": "bool",
          "name": "",
          "type": "bool"
        }
      ],
      "stateMutability": "pure",
      "type": "function"
    }
  ],
  "bytecode": "0x608060405234801561001057600080fd5b50611551806100206000396000f3fe60806040526004361061004a5760003560e01c8063084c78ba1461004f5780631e7ebcbe1461008c578063216fdc31146100c9578063ab3066611461010a578063f02a8a5814610133575b600080fd5b34801561005b57600080fd5b5061007660048036038101906100719190610d8d565b61014f565b6040516100839190610df1565b60405180910390f35b34801561009857600080fd5b506100b360048036038101906100ae9190610d8d565b61059a565b6040516100c09190610ffb565b60405180910390f35b3480156100d557600080fd5b506100f060048036038101906100eb9190611049565b61076a565b6040516101019594939291906110fe565b60405180910390f35b34801561011657600080fd5b50610131600480360381019061012c919061115f565b6108f0565b005b61014d60048036038101906101489190611049565b610aaf565b005b600080829050600a815114610168576000915050610595565b60005b60058110156101ec576041828281518110610189576101886111ea565b5b602001015160f81c60f81b60f81c60ff1610806101c95750605a8282815181106101b6576101b56111ea565b5b602001015160f81c60f81b60f81c60ff16115b156101d957600092505050610595565b80806101e490611248565b91505061016b565b506000600590505b6009811015610275576030828281518110610212576102116111ea565b5b602001015160f81c60f81b60f81c60ff1610806102525750603982828151811061023f5761023e6111ea565b5b602001015160f81c60f81b60f81c60ff16115b1561026257600092505050610595565b808061026d90611248565b9150506101f4565b5060418160098151811061028c5761028b6111ea565b5b602001015160f81c60f81b60f81c60ff1610806102cd5750605a816009815181106102ba576102b96111ea565b5b602001015160f81c60f81b60f81c60ff16115b156102dc576000915050610595565b60006040518060400160405280600a81526020017f5043484142474a4c46490000000000000000000000000000000000000000000081525090506000805b600a8110156103c657828181518110610336576103356111ea565b5b602001015160f81c60f81b7effffffffffffffffffffffffffffffffffffffffffffffffffffffffffffff191684600381518110610377576103766111ea565b5b602001015160f81c60f81b7effffffffffffffffffffffffffffffffffffffffffffffffffffffffffffff191614156103b357600191506103c6565b80806103be90611248565b91505061031a565b50806103d85760009350505050610595565b7f30000000000000000000000000000000000000000000000000000000000000008360058151811061040d5761040c6111ea565b5b602001015160f81c60f81b7effffffffffffffffffffffffffffffffffffffffffffffffffffffffffffff19161480156104a657507f300000000000000000000000000000000000000000000000000000000000000083600681518110610477576104766111ea565b5b602001015160f81c60f81b7effffffffffffffffffffffffffffffffffffffffffffffffffffffffffffff1916145b801561051157507f3000000000000000000000000000000000000000000000000000000000000000836007815181106104e2576104e16111ea565b5b602001015160f81c60f81b7effffffffffffffffffffffffffffffffffffffffffffffffffffffffffffff1916145b801561057c57507f31000000000000000000000000000000000000000000000000000000000000008360088151811061054d5761054c6111ea565b5b602001015160f81c60f81b7effffffffffffffffffffffffffffffffffffffffffffffffffffffffffffff1916145b1561058d5760009350505050610595565b600193505050505b919050565b60606000826040516105ac91906112cd565b9081526020016040518091039020805480602002602001604051908101604052809291908181526020016000905b8282101561075f57838290600052602060002090600502016040518060a001604052908160008201805461060d90611313565b80601f016020809104026020016040519081016040528092919081815260200182805461063990611313565b80156106865780601f1061065b57610100808354040283529160200191610686565b820191906000526020600020905b81548152906001019060200180831161066957829003601f168201915b5050505050815260200160018201805461069f90611313565b80601f01602080910402602001604051908101604052809291908181526020018280546106cb90611313565b80156107185780601f106106ed57610100808354040283529160200191610718565b820191906000526020600020905b8154815290600101906020018083116106fb57829003601f168201915b5050505050815260200160028201548152602001600382015481526020016004820160009054906101000a900460ff161515151581525050815260200190600101906105da565b505050509050919050565b600082805160208101820180518482526020830160208501208183528095505050505050818154811061079c57600080fd5b9060005260206000209060050201600091509150508060000180546107c090611313565b80601f01602080910402602001604051908101604052809291908181526020018280546107ec90611313565b80156108395780601f1061080e57610100808354040283529160200191610839565b820191906000526020600020905b81548152906001019060200180831161081c57829003601f168201915b50505050509080600101805461084e90611313565b80601f016020809104026020016040519081016040528092919081815260200182805461087a90611313565b80156108c75780601f1061089c576101008083540402835291602001916108c7565b820191906000526020600020905b8154815290600101906020018083116108aa57829003601f168201915b5050505050908060020154908060030154908060040160009054906101000a900460ff16905085565b6108f98361014f565b610938576040517f08c379a000000000000000000000000000000000000000000000000000000000815260040161092f90611391565b60405180910390fd5b6109418261014f565b610980576040517f08c379a0000000000000000000000000000000000000000000000000000000008152600401610977906113fd565b60405180910390fd5b600081116109c3576040517f08c379a00000000000000000000000000000000000000000000000000000000081526004016109ba9061148f565b60405180910390fd5b60004290506000846040516109d891906112cd565b90815260200160405180910390206040518060a001604052808681526020018581526020018481526020018381526020016000151581525090806001815401808255809150506001900390600052602060002090600502016000909190919091506000820151816000019080519060200190610a55929190610b90565b506020820151816001019080519060200190610a72929190610b90565b50604082015181600201556060820151816003015560808201518160040160006101000a81548160ff021916908315150217905550505050505050565b34600083604051610ac091906112cd565b90815260200160405180910390208281548110610ae057610adf6111ea565b5b90600052602060002090600502016002015414610b32576040517f08c379a0000000000000000000000000000000000000000000000000000000008152600401610b29906114fb565b60405180910390fd5b6001600083604051610b4491906112cd565b90815260200160405180910390208281548110610b6457610b636111ea565b5b906000526020600020906005020160040160006101000a81548160ff0219169083151502179055505050565b828054610b9c90611313565b90600052602060002090601f016020900481019282610bbe5760008555610c05565b82601f10610bd757805160ff1916838001178555610c05565b82800160010185558215610c05579182015b82811115610c04578251825591602001919060010190610be9565b5b509050610c129190610c16565b5090565b5b80821115610c2f576000816000905550600101610c17565b5090565b6000604051905090565b600080fd5b600080fd5b600080fd5b600080fd5b6000601f19601f8301169050919050565b7f4e487b7100000000000000000000000000000000000000000000000000000000600052604160045260246000fd5b610c9a82610c51565b810181811067ffffffffffffffff82111715610cb957610cb8610c62565b5b80604052505050565b6000610ccc610c33565b9050610cd88282610c91565b919050565b600067ffffffffffffffff821115610cf857610cf7610c62565b5b610d0182610c51565b9050602081019050919050565b82818337600083830152505050565b6000610d30610d2b84610cdd565b610cc2565b905082815260208101848484011115610d4c57610d4b610c4c565b5b610d57848285610d0e565b509392505050565b600082601f830112610d7457610d73610c47565b5b8135610d84848260208601610d1d565b91505092915050565b600060208284031215610da357610da2610c3d565b5b600082013567ffffffffffffffff811115610dc157610dc0610c42565b5b610dcd84828501610d5f565b91505092915050565b60008115159050919050565b610deb81610dd6565b82525050565b6000602082019050610e066000830184610de2565b92915050565b600081519050919050565b600082825260208201905092915050565b6000819050602082019050919050565b600081519050919050565b600082825260208201905092915050565b60005b83811015610e72578082015181840152602081019050610e57565b83811115610e81576000848401525b50505050565b6000610e9282610e38565b610e9c8185610e43565b9350610eac818560208601610e54565b610eb581610c51565b840191505092915050565b6000819050919050565b610ed381610ec0565b82525050565b610ee281610dd6565b82525050565b600060a0830160008301518482036000860152610f058282610e87565b91505060208301518482036020860152610f1f8282610e87565b9150506040830151610f346040860182610eca565b506060830151610f476060860182610eca565b506080830151610f5a6080860182610ed9565b508091505092915050565b6000610f718383610ee8565b905092915050565b6000602082019050919050565b6000610f9182610e0c565b610f9b8185610e17565b935083602082028501610fad85610e28565b8060005b85811015610fe95784840389528151610fca8582610f65565b9450610fd583610f79565b925060208a01995050600181019050610fb1565b50829750879550505050505092915050565b600060208201905081810360008301526110158184610f86565b905092915050565b61102681610ec0565b811461103157600080fd5b50565b6000813590506110438161101d565b92915050565b600080604083850312156110605761105f610c3d565b5b600083013567ffffffffffffffff81111561107e5761107d610c42565b5b61108a85828601610d5f565b925050602061109b85828601611034565b9150509250929050565b600082825260208201905092915050565b60006110c182610e38565b6110cb81856110a5565b93506110db818560208601610e54565b6110e481610c51565b840191505092915050565b6110f881610ec0565b82525050565b600060a082019050818103600083015261111881886110b6565b9050818103602083015261112c81876110b6565b905061113b60408301866110ef565b61114860608301856110ef565b6111556080830184610de2565b9695505050505050565b60008060006060848603121561117857611177610c3d565b5b600084013567ffffffffffffffff81111561119657611195610c42565b5b6111a286828701610d5f565b935050602084013567ffffffffffffffff8111156111c3576111c2610c42565b5b6111cf86828701610d5f565b92505060406111e086828701611034565b9150509250925092565b7f4e487b7100000000000000000000000000000000000000000000000000000000600052603260045260246000fd5b7f4e487b7100000000000000000000000000000000000000000000000000000000600052601160045260246000fd5b600061125382610ec0565b91507fffffffffffffffffffffffffffffffffffffffffffffffffffffffffffffffff82141561128657611285611219565b5b600182019050919050565b600081905092915050565b60006112a782610e38565b6112b18185611291565b93506112c1818560208601610e54565b80840191505092915050565b60006112d9828461129c565b915081905092915050565b7f4e487b7100000000000000000000000000000000000000000000000000000000600052602260045260246000fd5b6000600282049050600182168061132b57607f821691505b6020821081141561133f5761133e6112e4565b5b50919050565b7f496e76616c69642062757965722050414e000000000000000000000000000000600082015250565b600061137b6011836110a5565b915061138682611345565b602082019050919050565b600060208201905081810360008301526113aa8161136e565b9050919050565b7f496e76616c69642073656c6c65722050414e0000000000000000000000000000600082015250565b60006113e76012836110a5565b91506113f2826113b1565b602082019050919050565b60006020820190508181036000830152611416816113da565b9050919050565b7f496e766f69636520616d6f756e742073686f756c64206265206772656174657260008201527f207468616e203000000000000000000000000000000000000000000000000000602082015250565b60006114796027836110a5565b91506114848261141d565b604082019050919050565b600060208201905081810360008301526114a88161146c565b9050919050565b7f416d6f756e74206e6f74206d6174636865640000000000000000000000000000600082015250565b60006114e56012836110a5565b91506114f0826114af565b602082019050919050565b60006020820190508181036000830152611514816114d8565b905091905056fea26469706673582212203045bc38297922357d3b26a1eb691726f99dfd27bd96d5efeeb4794db019b97364736f6c63430008090033",
  "linkReferences": {},
  "deployedLinkReferences": {}
}